S00C0000527849722E7372656393
S113000019C045C032C031C030C02FC02EC02DC071
S11300102CC02BC02AC029C028C027C026C025C098
S113002024C023C022C021C020C01FC01EC01DC0C8
S11300301CC01BC011241FBECFEFD4E0DEBFCDBF58
S113004011E0A0E0B1E0E2E2FAE002C005900D9216
S1130050A039B107D9F721E0A0E9B1E001C01D92B0
S1130060AC3AB207E1F74FD1DAC4CACFCF93C82F65
S11300708A3011F48DE0FADFE0ECF0E0908195FF36
S1130080FDCFC093C60080E090E0CF9108951F9209
S11300900F920FB60F9211242F933F934F935F93B8
S11300A06F937F938F939F93AF93BF93CF93DF937C
S11300B0EF93FF93F89410929B0110929A0110927F
S11300C0A5011092A4014A990EC08091A4019091B7
S11300D0A50101969093A5018093A40128E02A9597
S11300E0F1F74A9BF2CF85E88A95F1F70000109268
S11300F09D0110929C011AC080919C0190919D01D8
S1130100019690939D0180939C0198E09A95F1F754
S113011080919C0190919D018D3795413CF081E047
S113012090E090939B0180939A015DC04A99E4CF3B
S11301301092A3011092A2014A990FC08091A201CA
S11301409091A30101969093A3018093A2018AE167
S11301508A95F1F700C04A9BF1CF95E89A95F1F79B
S1130160000010929D0110929C011AC080919C0184
S113017090919D01019690939D0180939C0128E0AC
S11301802A95F1F780919C0190919D018D379541BD
S11301903CF081E090E090939B0180939A0123C00E
S11301A04A99E4CF1092A1011092A0014A990FC07C
S11301B08091A0019091A10101969093A101809357
S11301C0A0018AE18A95F1F700C04A9BF1CF95E836
S11301D09A95F1F700005F9A8FEC97E00197F1F799
S11301E000C000005F986091A4017091A5018EEC9D
S11301F090E0861B970B9093990180939801E0916E
S1130200A201F091A3012CEA30E02E1B3F0B3093A6
S1130210970120939601A091A001B091A10143E020
S113022051E04A1B5B0B5093950140939401EC0100
S11302306D96EB9778F4E9016D96EB9758F4EA0123
S11302406D96EB9738F4C1E0D0E0D0939301C0935E
S1130250920104C010929301109292015F934F9304
S11302603F932F939F938F9380919B018F938091C2
S11302709A018F93BF93AF93FF93EF937F936F9301
S11302808EE091E09F938F9319D181E08CBB9FEF17
S113029020E782E0915020408040E1F700C0000058
S11302A081E08CBB78948DB79EB740960FB6F894D6
S11302B09EBF0FBE8DBFFF91EF91DF91CF91BF9194
S11302C0AF919F918F917F916F915F914F913F91EA
S11302D02F910F900FBE0F901F9018951092C5008C
S11302E08CE08093C400E0ECF0E080818D7F80831B
S11302F0E2ECF0E080818E608083E1ECF0E08081CC
S1130300886180830895579A559A389A3C985D98E5
S113031040985F98E3DF80E091E09093A901809397
S1130320A801E9E6F0E0808182608083E89A78940D
S113033010929F0110929E01CCE4D1E001E010E004
S11303408FE19EE40197F1F700C0000080919001D5
S1130350909191010196909391018093900185363B
S1130360910594F080919E0190919F01892B61F4F5
S113037010929101109290015F9A8FE39CE901978A
S1130380F1F700C000005F98809192019091930171
S1130390019711F0349BD4CF1092910110929001E7
S11303A01092930110929201809195018F93809104
S11303B094018F93809197018F93809196018F93ED
S11303C0809199018F93809198018F9380919B01E3
S11303D08F9380919A018F938091A1018F93809143
S11303E0A0018F938091A3018F938091A2018F9399
S11303F08091A5018F938091A4018F93DF93CF9374
S11304005DD08DB79EB740960FB6F8949EBF0FBED1
S11304108DBF80919E0190919F01892BD9F41093F7
S11304209F0100939E015F9A409A9FEF2EE984E218
S1130430915020408040E1F700C000005D9A9FEF9A
S113044023ED80E3915020408040E1F700C000009C
S11304505D9807C010929F0110929E0140985D988C
S11304605F989FEF20E782E0915020408040E1F7C1
S113047000C000003499FECF9FEF22E587E0915041
S113048020408040E1F700C000001092A5011092C6
S1130490A4011092A3011092A2011092A101109242
S11304A0A001109299011092980110929701109254
S11304B09601109295011092940142CFA0E0B0E011
S11304C0E3E6F2E085C2FE01359661917191AF01D8
S11304D08091A8019091A90102D0E2E095C2ACE01C
S11304E0B0E0E4E7F2E064C27C016B018A01FC0144
S11304F017821682838181FFB0C1CE0101964C011F
S1130500F7019381F60193FD859193FF81916F012A
S1130510882309F49EC1853239F493FD859193FFB4
S113052081916F01853221F4B70190E0B1D1E8CF18
S1130530512C312C20E02032A0F48B3269F030F4BD
S1130540803259F0833269F420612CC08D3239F045
S1130550803339F4216026C02260246023C02860DF
S113056021C027FD27C030ED380F3A3078F426FF3C
S113057006C0FAE05F9E300D1124532E13C08AE0AA
S1130580389E300D1124332E20620CC08E3221F49B
S113059026FD5FC1206406C08C3611F4206802C0B9
S11305A0883641F4F60193FD859193FF81916F01A3
S11305B08111C1CF982F9F7D9554933028F40C5FFF
S11305C01F4FFFE3F9830DC0833631F0833771F099
S11305D0833509F057C021C0F801808189830E5FFB
S11305E01F4F44244394512C540114C03801F2E0A9
S11305F06F0E711CF801A080B18026FF03C0652D29
S113060070E002C06FEF7FEFC5012C8736D12C015B
S113061083012C852F77222E16C03801F2E06F0E4D
S1130620711CF801A080B18026FF03C0652D70E025
S113063002C06FEF7FEFC5012C8714D12C012C85EC
S11306402068222E830123FC19C0832D90E04816D4
S11306505906A0F4B70180E290E01AD13A94F5CF9C
S1130660F50127FC859127FE81915F01B70190E098
S11306700FD131103A94F1E04F1A5108411451044A
S113068079F7DEC0843611F0893631F5F80127FF99
S113069007C060817181828193810C5F1F4F08C004
S11306A060817181882777FD8095982F0E5F1F4F99
S11306B02F76B22E97FF09C090958095709561951D
S11306C07F4F8F4F9F4F2068B22E2AE030E0A40165
S11306D011D1A82EA81843C0853729F42F7EB22E35
S11306E02AE030E025C0F22FF97FBF2E8F36C1F00B
S11306F018F4883579F0ADC0803719F0883721F0C7
S1130700A8C02F2F2061B22EB4FE0DC08B2D8460A3
S1130710B82E09C024FF0AC09F2F9660B92E06C0C8
S113072028E030E005C020E130E002C020E132E002
S1130730F801B7FE07C060817181828193810C5FEB
S11307401F4F06C06081718180E090E00E5F1F4FF3
S1130750A401D0D0A82EA818FB2DFF77BF2EB6FE7B
S11307600BC02B2D2E7FA51450F4B4FE0AC0B2FC8E
S113077008C02B2D2E7E05C07A2C2B2D03C07A2C7D
S113078001C0752C24FF0DC0FE01EA0DF11D80810E
S1130790803311F4297E09C022FF06C07394739438
S11307A004C0822F867809F0739423FD12C020FFC1
S11307B006C05A2C731418F4530C5718732C731462
S11307C060F4B70180E290E02C8762D073942C85AA
S11307D0F6CF731410F4371801C0312C24FF11C064
S11307E0B70180E390E02C8753D02C8522FF16C0FC
S11307F021FF03C088E590E002C088E790E0B701DC
S11308000CC0822F867851F021FD02C080E201C025
S11308108BE227FD8DE2B70190E03AD0A51430F4C5
S1130820B70180E390E034D05A94F8CFAA94F4014D
S1130830EA0DF11D8081B70190E02AD0A110F6CF16
S1130840332009F45DCEB70180E290E021D03A94E0
S1130850F7CFF7018681978102C08FEF9FEF2C9627
S1130860E2E1C2C0FC010590615070400110D8F76C
S1130870809590958E0F9F1F0895FC0161507040E4
S113088001900110D8F7809590958E0F9F1F0895C1
S11308900F931F93CF93DF93182F092FEB018B81B5
S11308A081FD03C08FEF9FEF20C082FF10C04E81F7
S11308B05F812C813D81421753077CF4E881F981E3
S11308C09F012F5F3F4F39832883108306C0E8853B
S11308D0F985812F0995892B29F72E813F812F5F77
S11308E03F4F3F832E83812F902FDF91CF911F9114
S11308F00F910895FA01AA27283051F1203181F18E
S1130900E8946F936E7F6E5F7F4F8F4F9F4FAF4F13
S1130910B1E03ED0B4E03CD0670F781F891F9A1F26
S1130920A11D680F791F8A1F911DA11D6A0F711DDA
S1130930811D911DA11D20D009F468943F912AE0E6
S1130940269F11243019305D3193DEF6CF010895CE
S1130950462F4770405D4193B3E00FD0C9F7F6CFFF
S1130960462F4F70405D4A3318F0495D31FD4052C7
S1130970419302D0A9F7EACFB4E0A695979587955D
S113098077956795BA95C9F700976105710508953C
S11309909B01AC010A2E06945795479537952795E8
S11309A0BA95C9F7620F731F841F951FA01D089580
S11309B02F923F924F925F926F927F928F929F926B
S11309C0AF92BF92CF92DF92EF92FF920F931F9359
S11309D0CF93DF93CDB7DEB7CA1BDB0B0FB6F8940A
S11309E0DEBF0FBECDBF09942A88398848885F844A
S11309F06E847D848C849B84AA84B984C884DF80BB
S1130A00EE80FD800C811B81AA81B981CE0FD11D9E
S1130A100FB6F894DEBF0FBECDBFED010895F89474
S1050A20FFCF02
S1130A2200000002000000003600000000007075A3
S1130A326C736F313A25752070756C736F323A2579
S1130A42752070756C736F333A2575206572726FF9
S1130A52723A2575206470313A2564206470323A02
S1130A622564206470333A25640D0A0070756C7332
S1130A726F6F6B3A25752070756C736F323A2575FA
S1130A822070756C736F333A2575206572726F72BC
S1130A923A2575206470313A2564206470323A250F
S1130AA264206470333A25640D0A0D0A0D0A0000AD
S9030000FC
